:020000040000FA
:100000000C9435000C945D000C945D000C945D0024
:100010000C945D000C945D000C945D000C945D00EC
:100020000C945D000C945D000C945D000C945D00DC
:100030000C945D000C945D000C945D000C945D00CC
:100040000C94E2010C945D000C9452020C942C026E
:100050000C945D000C945D000C945D000C945D00AC
:100060000C945D000C945D00FF0311241FBECFEFC4
:10007000D8E0DEBFCDBF11E0A0E0B1E0E4E2FDE0FA
:1000800002C005900D92A232B107D9F722E0A2E298
:10009000B1E001C01D92A439B207E1F710E0C5E359
:1000A000D0E004C02197FE010E948A06C433D10724
:1000B000C9F70E9484020C9490060C9400003FB78C
:1000C000F8948091F3019091F401A091F501B09121
:1000D000F60126B5A89B05C02F3F19F00196A11D7A
:1000E000B11D3FBFBA2FA92F982F8827BC01CD0182
:1000F000620F711D811D911D42E0660F771F881FE1
:10010000991F4A95D1F70895AF92BF92CF92DF928F
:10011000EF92FF920F931F93CF93DF936C017B01BC
:100120008B01040F151FEB015E01AE18BF08C0174D
:10013000D10759F06991D601ED91FC910190F081C0
:10014000E02DC6010995892B79F7C501DF91CF9183
:100150001F910F91FF90EF90DF90CF90BF90AF90E5
:100160000895FC01538D448D252F30E0842F90E0BD
:10017000821B930B541710F0CF96089501970895A2
:10018000FC01918D828D981761F0A28DAE0FBF2F6B
:10019000B11D5D968C91928D9F5F9F73928F90E0C1
:1001A00008958FEF9FEF0895FC01918D828D981730
:1001B00031F0828DE80FF11D858D90E008958FEF6D
:1001C0009FEF0895FC01918D228D892F90E0805C36
:1001D0009F4F821B91098F739927089587EF91E0B4
:1001E0000E94E20021E0892B09F420E0822F08958B
:1001F00080E090E0892B29F00E94EE0081110C94A0
:1002000000000895FC01A48DA80FB92FB11DA35AB9
:10021000BF4F2C91848D90E001968F739927848F26
:10022000A689B7892C93A089B1898C918370806449
:100230008C93938D848D981306C00288F389E02DEA
:1002400080818F7D80830895EF92FF920F931F939B
:10025000CF93DF93EC0181E0888F9B8D8C8D981379
:100260001AC0E889F989808185FF15C09FB7F89485
:10027000EE89FF896083E889F989808183708064D1
:1002800080839FBF81E090E0DF91CF911F910F911C
:10029000FF90EF900895F62E0B8D10E00F5F1F4F2B
:1002A0000F731127E02E8C8D8E110CC00FB607FC3A
:1002B000FACFE889F989808185FFF5CFCE010E94C8
:1002C0000201F1CFEB8DEC0FFD2FF11DE35AFF4F33
:1002D000F0829FB7F8940B8FEA89FB898081806256
:1002E000CFCFCF93DF93EC01888D8823B9F0AA8913
:1002F000BB89E889F9898C9185FD03C0808186FDE1
:100300000DC00FB607FCF7CF8C9185FFF2CF80812F
:1003100085FFEDCFCE010E940201E9CFDF91CF91A1
:100320000895FC0101900020E9F73197AF01481BC7
:10033000590BBC0187EF91E00C9484008F929F923F
:10034000AF92BF920F931F93CF93DF93CDB7DEB7DA
:10035000A1970FB6F894DEBF0FBECDBF19A24230F1
:1003600008F44AE08E010F5D1F4F842E912CB12CB2
:10037000A12CA50194010E946806E62FB901CA01CB
:10038000EA30F4F4E05DD801EE938D01232B242BA9
:10039000252B79F790E080E0109719F0CD010E94AD
:1003A0009101A1960FB6F894DEBF0FBECDBFDF91CD
:1003B000CF911F910F91BF90AF909F908F90089514
:1003C000E95CE1CF1F920F920FB60F9211242F9389
:1003D0003F938F939F93AF93BF938091EF01909141
:1003E000F001A091F101B091F2013091EE0123E012
:1003F000230F2D3758F50196A11DB11D2093EE0155
:100400008093EF019093F001A093F101B093F2017A
:100410008091F3019091F401A091F501B091F60162
:100420000196A11DB11D8093F3019093F401A09357
:10043000F501B093F601BF91AF919F918F913F91DC
:100440002F910F900FBE0F901F90189526E8230F45
:100450000296A11DB11DD2CF1F920F920FB60F921F
:1004600011242F933F934F935F936F937F938F93B9
:100470009F93AF93BF93EF93FF9387EF91E00E9419
:100480000201FF91EF91BF91AF919F918F917F9169
:100490006F915F914F913F912F910F900FBE0F90F1
:1004A0001F9018951F920F920FB60F9211242F9341
:1004B0008F939F93EF93FF93E0910702F0910802CF
:1004C0008081E0910D02F0910E0282FD1BC09081AF
:1004D000809110028F5F8F7320911102821741F07B
:1004E000E0911002F0E0E950FE4F958F80931002EA
:1004F000FF91EF919F918F912F910F900FBE0F90D1
:100500001F9018958081F4CF789484B5826084BD63
:1005100084B5816084BD85B5826085BD85B5816007
:1005200085BD80916E00816080936E001092810085
:100530008091810082608093810080918100816040
:100540008093810080918000816080938000809101
:10055000B10084608093B1008091B000816080938D
:10056000B00080917A00846080937A0080917A0054
:10057000826080937A0080917A00816080937A0013
:1005800080917A00806880937A001092C100E09197
:100590000702F091080282E08083E0910302F0916B
:1005A00004021082E0910502F091060280E180834E
:1005B00010920F02E0910B02F0910C0286E0808312
:1005C000E0910902F0910A02808180618083E091CC
:1005D0000902F0910A02808188608083E09109021B
:1005E000F0910A02808180688083E0910902F09195
:1005F0000A0280818F7D808388EE93E0A0E0B0E0E6
:100600008093EA019093EB01A093EC01B093ED018C
:1006100002E211E0E80190E4B92E0E945F006B0154
:100620007C01B0927C0080917A00806480937A0093
:1006300080917A0086FDFCCF6091780070917900FE
:10064000072E000C880B990B0E94410520E030E03A
:1006500040EA50E40E94F60520E030EC4FE754E415
:100660000E949E0469937993899399930E945F00F5
:100670006C197D098E099F094090EA015090EB01A9
:100680006090EC017090ED01641575058605970585
:1006900068F381E0CA3ED80709F0BFCFF801C190E6
:1006A000D190E190F1908F01A7019601C701B601A9
:1006B0000E9463068823B1F082E191E00E949101DB
:1006C0008EE191E00E949101C017D10739F7C0E097
:1006D000D0E02097F1F30E94EE008823D1F30E942E
:1006E0000000F7CF46015701E894B7F82FEF3FEF2E
:1006F0004FE75FE7C501B4010E94630681110DC099
:100700002FEF3FEF4FE75FE7C501B4010E94990467
:1007100018161CF486E191E0D1CF2FEF3FEF4FE7A1
:100720005FE4C701B6010E94F10518161CF48AE1C6
:1007300091E0C4CF2FEF3FEF4FE75FECC701B60169
:100740000E94990487FDF3CF20E030E0A901C701A2
:10075000B6010E94990487FF09C06DE287EF91E01E
:100760000E942401F7FAF094F7F8F0942EE632E1B3
:1007700043E05AE3C701B6010E942D046B017C01DE
:100780000E9410054B015C010E943F059B01AC01DA
:10079000C701B6010E942C046B017C014AE0C5012F
:1007A000B4010E949E016EE287EF91E00E94240155
:1007B00084E0782E7A94772009F482CF20E030E02C
:1007C00040E251E4C701B6010E94F6054B015C010D
:1007D0000E9410056B01F12CE12C4AE0C701B60123
:1007E0000E949E01C701B6010E943F059B01AC011A
:1007F000C501B4010E942C046B017C01DBCFE7EF43
:10080000F1E01382128288EE93E0A0E0B0E08483EE
:100810009583A683B78384E091E09183808385EC00
:1008200090E09587848784EC90E09787868780ECBA
:1008300090E0918B808B81EC90E0938B828B82ECAB
:1008400090E0958B848B86EC90E0978B868B118E55
:10085000128E138E148E08955058BB27AA270E941B
:1008600044040C94B7050E94A90538F00E94B00515
:1008700020F039F49F3F19F426F40C94A6050EF4E9
:10088000E095E7FB0C94A005E92F0E94C80558F3FA
:10089000BA17620773078407950720F079F4A6F565
:1008A0000C94EA050EF4E0950B2EBA2FA02D0B0147
:1008B000B90190010C01CA01A0011124FF27591BA5
:1008C00099F0593F50F4503E68F11A16F040A22FAB
:1008D000232F342F4427585FF3CF4695379527951C
:1008E000A795F0405395C9F77EF41F16BA0B620B1B
:1008F000730B840BBAF09150A1F0FF0FBB1F661F62
:10090000771F881FC2F70EC0BA0F621F731F841FA4
:1009100048F4879577956795B795F7959E3F08F0CA
:10092000B0CF9395880F08F09927EE0F979587958C
:1009300008950E947C0508F481E008950E94B204A5
:100940000C94B7050E94B00558F00E94A90540F02C
:1009500029F45F3F29F00C94A00551110C94EB058C
:100960000C94A6050E94C80568F39923B1F355239A
:1009700091F3951B550BBB27AA27621773078407B2
:1009800038F09F5F5F4F220F331F441FAA1FA9F348
:1009900035D00E2E3AF0E0E832D091505040E69536
:1009A000001CCAF72BD0FE2F29D0660F771F881F97
:1009B000BB1F261737074807AB07B0E809F0BB0B8A
:1009C000802DBF01FF2793585F4F3AF09E3F51059E
:1009D00078F00C94A0050C94EB055F3FE4F3983E8F
:1009E000D4F3869577956795B795F7959F5FC9F787
:1009F000880F911D9695879597F90895E1E0660F08
:100A0000771F881FBB1F621773078407BA0720F080
:100A1000621B730B840BBA0BEE1F88F7E0950895E9
:100A20000E94D00588F09F5798F0B92F9927B751A9
:100A3000B0F0E1F0660F771F881F991F1AF0BA9582
:100A4000C9F714C0B13091F00E94EA05B1E00895F1
:100A50000C94EA05672F782F8827B85F39F0B93FE3
:100A6000CCF3869577956795B395D9F73EF4909535
:100A70008095709561957F4F8F4F9F4F0895E894B3
:100A800009C097FB3EF490958095709561957F4FD6
:100A90008F4F9F4F9923A9F0F92F96E9BB27939584
:100AA000F695879577956795B795F111F8CFFAF494
:100AB000BB0F11F460FF1BC06F5F7F4F8F4F9F4FC5
:100AC00016C0882311F096E911C0772321F09EE823
:100AD000872F762F05C0662371F096E8862F70E089
:100AE00060E02AF09A95660F771F881FDAF7880F63
:100AF0009695879597F90895990F0008550FAA0BB9
:100B0000E0E8FEEF16161706E807F907C0F0121620
:100B10001306E407F50798F0621B730B840B950B23
:100B200039F40A2661F0232B242B252B21F4089578
:100B30000A2609F4A140A6958FEF811D811D089515
:100B400097F99F6780E870E060E008959FEF80EC80
:100B5000089500240A941616170618060906089523
:100B600000240A9412161306140605060895092E89
:100B70000394000C11F4882352F0BB0F40F4BF2BF8
:100B800011F460FF04C06F5F7F4F8F4F9F4F089538
:100B900057FD9058440F551F59F05F3F71F047952E
:100BA000880F97FB991F61F09F3F79F08795089513
:100BB000121613061406551FF2CF4695F1DF08C032
:100BC000161617061806991FF1CF8695710561054F
:100BD00008940895E894BB2766277727CB0197F9F7
:100BE00008950E947C0508F48FEF08950E9409067D
:100BF0000C94B7050E94A90538F00E94B00520F0BA
:100C0000952311F00C94A0050C94A60511240C94C6
:100C1000EB050E94C80570F3959FC1F3950F50E056
:100C2000551F629FF001729FBB27F00DB11D639F9E
:100C3000AA27F00DB11DAA1F649F6627B00DA11D44
:100C4000661F829F2227B00DA11D621F739FB00DEA
:100C5000A11D621F839FA00D611D221F749F33275A
:100C6000A00D611D231F849F600D211D822F762FF3
:100C70006A2F11249F5750409AF0F1F088234AF0D0
:100C8000EE0FFF1FBB1F661F771F881F915050403C
:100C9000A9F79E3F510580F00C94A0050C94EB053C
:100CA0005F3FE4F3983ED4F3869577956795B795C3
:100CB000F795E7959F5FC1F7FE2B880F911D9695DD
:100CC000879597F908950E947C05880B990B0895E4
:100CD000A1E21A2EAA1BBB1BFD010DC0AA1FBB1F40
:100CE000EE1FFF1FA217B307E407F50720F0A21BB2
:100CF000B30BE40BF50B661F771F881F991F1A941F
:100D000069F760957095809590959B01AC01BD0148
:100D1000CF010895EE0FFF1F0590F491E02D099487
:100D2000F894FFCF0000000024018400B10071019D
:100D3000E200C000D4006E616E00696E66006F76DE
:060D400066000D0A000030
:107E0000112484B714BE81FFF0D085E080938100F7
:107E100082E08093C00088E18093C10086E0809377
:107E2000C20080E18093C4008EE0C9D0259A86E02C
:107E300020E33CEF91E0309385002093840096BBD3
:107E4000B09BFECF1D9AA8958150A9F7CC24DD24C4
:107E500088248394B5E0AB2EA1E19A2EF3E0BF2EE7
:107E6000A2D0813461F49FD0082FAFD0023811F036
:107E7000013811F484E001C083E08DD089C08234E0
:107E800011F484E103C0853419F485E0A6D080C0E4
:107E9000853579F488D0E82EFF2485D0082F10E0AE
:107EA000102F00270E291F29000F111F8ED06801E7
:107EB0006FC0863521F484E090D080E0DECF843638
:107EC00009F040C070D06FD0082F6DD080E0C81688
:107ED00080E7D80618F4F601B7BEE895C0E0D1E017
:107EE00062D089930C17E1F7F0E0CF16F0E7DF06D8
:107EF00018F0F601B7BEE89568D007B600FCFDCFD4
:107F0000A601A0E0B1E02C9130E011968C91119780
:107F100090E0982F8827822B932B1296FA010C0160
:107F200087BEE89511244E5F5F4FF1E0A038BF0790
:107F300051F7F601A7BEE89507B600FCFDCF97BE46
:107F4000E89526C08437B1F42ED02DD0F82E2BD052
:107F50003CD0F601EF2C8F010F5F1F4F84911BD097
:107F6000EA94F801C1F70894C11CD11CFA94CF0C13
:107F7000D11C0EC0853739F428D08EE10CD085E9AC
:107F80000AD08FE07ACF813511F488E018D01DD067
:107F900080E101D065CF982F8091C00085FFFCCF94
:107FA0009093C60008958091C00087FFFCCF809118
:107FB000C00084FD01C0A8958091C6000895E0E648
:107FC000F0E098E1908380830895EDDF803219F02E
:107FD00088E0F5DFFFCF84E1DECF1F93182FE3DFCA
:107FE0001150E9F7F2DF1F91089580E0E8DFEE27F6
:047FF000FF270994CA
:027FFE00040479
:00000001FF
